{
  "_format": "hh-sol-artifact-1",
  "contractName": "DegenToken",
  "sourceName": "contracts/DegenToken.sol",
  "abi": [
    {
      "inputs": [],
      "stateMutability": "nonpayable",
      "type": "constructor"
    },
    {
      "anonymous": false,
      "inputs": [
        {
          "indexed": true,
          "internalType": "address",
          "name": "owner",
          "type": "address"
        },
        {
          "indexed": true,
          "internalType": "address",
          "name": "spender",
          "type": "address"
        },
        {
          "indexed": false,
          "internalType": "uint256",
          "name": "value",
          "type": "uint256"
        }
      ],
      "name": "Approval",
      "type": "event"
    },
    {
      "anonymous": false,
      "inputs": [
        {
          "indexed": true,
          "internalType": "address",
          "name": "previousOwner",
          "type": "address"
        },
        {
          "indexed": true,
          "internalType": "address",
          "name": "newOwner",
          "type": "address"
        }
      ],
      "name": "OwnershipTransferred",
      "type": "event"
    },
    {
      "anonymous": false,
      "inputs": [
        {
          "indexed": true,
          "internalType": "address",
          "name": "from",
          "type": "address"
        },
        {
          "indexed": true,
          "internalType": "address",
          "name": "to",
          "type": "address"
        },
        {
          "indexed": false,
          "internalType": "uint256",
          "name": "value",
          "type": "uint256"
        }
      ],
      "name": "Transfer",
      "type": "event"
    },
    {
      "inputs": [],
      "name": "YourBalance",
      "outputs": [
        {
          "internalType": "uint256",
          "name": "",
          "type": "uint256"
        }
      ],
      "stateMutability": "view",
      "type": "function"
    },
    {
      "inputs": [
        {
          "internalType": "address",
          "name": "owner",
          "type": "address"
        },
        {
          "internalType": "address",
          "name": "spender",
          "type": "address"
        }
      ],
      "name": "allowance",
      "outputs": [
        {
          "internalType": "uint256",
          "name": "",
          "type": "uint256"
        }
      ],
      "stateMutability": "view",
      "type": "function"
    },
    {
      "inputs": [
        {
          "internalType": "address",
          "name": "spender",
          "type": "address"
        },
        {
          "internalType": "uint256",
          "name": "amount",
          "type": "uint256"
        }
      ],
      "name": "approve",
      "outputs": [
        {
          "internalType": "bool",
          "name": "",
          "type": "bool"
        }
      ],
      "stateMutability": "nonpayable",
      "type": "function"
    },
    {
      "inputs": [
        {
          "internalType": "address",
          "name": "account",
          "type": "address"
        }
      ],
      "name": "balanceOf",
      "outputs": [
        {
          "internalType": "uint256",
          "name": "",
          "type": "uint256"
        }
      ],
      "stateMutability": "view",
      "type": "function"
    },
    {
      "inputs": [
        {
          "internalType": "uint256",
          "name": "amount",
          "type": "uint256"
        }
      ],
      "name": "burn",
      "outputs": [],
      "stateMutability": "nonpayable",
      "type": "function"
    },
    {
      "inputs": [
        {
          "internalType": "uint256",
          "name": "amount",
          "type": "uint256"
        }
      ],
      "name": "burnDegen",
      "outputs": [],
      "stateMutability": "nonpayable",
      "type": "function"
    },
    {
      "inputs": [
        {
          "internalType": "address",
          "name": "account",
          "type": "address"
        },
        {
          "internalType": "uint256",
          "name": "amount",
          "type": "uint256"
        }
      ],
      "name": "burnFrom",
      "outputs": [],
      "stateMutability": "nonpayable",
      "type": "function"
    },
    {
      "inputs": [],
      "name": "decimals",
      "outputs": [
        {
          "internalType": "uint8",
          "name": "",
          "type": "uint8"
        }
      ],
      "stateMutability": "pure",
      "type": "function"
    },
    {
      "inputs": [
        {
          "internalType": "address",
          "name": "spender",
          "type": "address"
        },
        {
          "internalType": "uint256",
          "name": "subtractedValue",
          "type": "uint256"
        }
      ],
      "name": "decreaseAllowance",
      "outputs": [
        {
          "internalType": "bool",
          "name": "",
          "type": "bool"
        }
      ],
      "stateMutability": "nonpayable",
      "type": "function"
    },
    {
      "inputs": [],
      "name": "gameStore",
      "outputs": [
        {
          "internalType": "string",
          "name": "",
          "type": "string"
        }
      ],
      "stateMutability": "pure",
      "type": "function"
    },
    {
      "inputs": [
        {
          "internalType": "address",
          "name": "spender",
          "type": "address"
        },
        {
          "internalType": "uint256",
          "name": "addedValue",
          "type": "uint256"
        }
      ],
      "name": "increaseAllowance",
      "outputs": [
        {
          "internalType": "bool",
          "name": "",
          "type": "bool"
        }
      ],
      "stateMutability": "nonpayable",
      "type": "function"
    },
    {
      "inputs": [
        {
          "internalType": "address",
          "name": "to",
          "type": "address"
        },
        {
          "internalType": "uint256",
          "name": "amount",
          "type": "uint256"
        }
      ],
      "name": "mint",
      "outputs": [],
      "stateMutability": "nonpayable",
      "type": "function"
    },
    {
      "inputs": [],
      "name": "name",
      "outputs": [
        {
          "internalType": "string",
          "name": "",
          "type": "string"
        }
      ],
      "stateMutability": "view",
      "type": "function"
    },
    {
      "inputs": [],
      "name": "owner",
      "outputs": [
        {
          "internalType": "address",
          "name": "",
          "type": "address"
        }
      ],
      "stateMutability": "view",
      "type": "function"
    },
    {
      "inputs": [
        {
          "internalType": "uint256",
          "name": "_userChoice",
          "type": "uint256"
        }
      ],
      "name": "reedemTokens",
      "outputs": [],
      "stateMutability": "payable",
      "type": "function"
    },
    {
      "inputs": [],
      "name": "renounceOwnership",
      "outputs": [],
      "stateMutability": "nonpayable",
      "type": "function"
    },
    {
      "inputs": [],
      "name": "symbol",
      "outputs": [
        {
          "internalType": "string",
          "name": "",
          "type": "string"
        }
      ],
      "stateMutability": "view",
      "type": "function"
    },
    {
      "inputs": [],
      "name": "totalSupply",
      "outputs": [
        {
          "internalType": "uint256",
          "name": "",
          "type": "uint256"
        }
      ],
      "stateMutability": "view",
      "type": "function"
    },
    {
      "inputs": [
        {
          "internalType": "address",
          "name": "to",
          "type": "address"
        },
        {
          "internalType": "uint256",
          "name": "amount",
          "type": "uint256"
        }
      ],
      "name": "transfer",
      "outputs": [
        {
          "internalType": "bool",
          "name": "",
          "type": "bool"
        }
      ],
      "stateMutability": "nonpayable",
      "type": "function"
    },
    {
      "inputs": [
        {
          "internalType": "address",
          "name": "_reciever",
          "type": "address"
        },
        {
          "internalType": "uint256",
          "name": "amount",
          "type": "uint256"
        }
      ],
      "name": "transferDegen",
      "outputs": [],
      "stateMutability": "nonpayable",
      "type": "function"
    },
    {
      "inputs": [
        {
          "internalType": "address",
          "name": "from",
          "type": "address"
        },
        {
          "internalType": "address",
          "name": "to",
          "type": "address"
        },
        {
          "internalType": "uint256",
          "name": "amount",
          "type": "uint256"
        }
      ],
      "name": "transferFrom",
      "outputs": [
        {
          "internalType": "bool",
          "name": "",
          "type": "bool"
        }
      ],
      "stateMutability": "nonpayable",
      "type": "function"
    },
    {
      "inputs": [
        {
          "internalType": "address",
          "name": "newOwner",
          "type": "address"
        }
      ],
      "name": "transferOwnership",
      "outputs": [],
      "stateMutability": "nonpayable",
      "type": "function"
    }
  ],
  "bytecode": "0x60806040523480156200001157600080fd5b506040518060400160405280600581526020017f446567656e0000000000000000000000000000000000000000000000000000008152506040518060400160405280600381526020017f44474e000000000000000000000000000000000000000000000000000000000081525081600390816200008f919062000412565b508060049081620000a1919062000412565b505050620000c4620000b8620000ca60201b60201c565b620000d260201b60201c565b620004f9565b600033905090565b6000600560009054906101000a900473ffffffffffffffffffffffffffffffffffffffff16905081600560006101000a81548173ffffffffffffffffffffffffffffffffffffffff021916908373ffffffffffffffffffffffffffffffffffffffff1602179055508173ffffffffffffffffffffffffffffffffffffffff168173ffffffffffffffffffffffffffffffffffffffff167f8be0079c531659141344cd1fd0a4f28419497f9722a3daafe3b4186f6b6457e060405160405180910390a35050565b600081519050919050565b7f4e487b7100000000000000000000000000000000000000000000000000000000600052604160045260246000fd5b7f4e487b7100000000000000000000000000000000000000000000000000000000600052602260045260246000fd5b600060028204905060018216806200021a57607f821691505b60208210810362000230576200022f620001d2565b5b50919050565b60008190508160005260206000209050919050565b60006020601f8301049050919050565b600082821b905092915050565b6000600883026200029a7fffffffffffffffffffffffffffffffffffffffffffffffffffffffffffffffff826200025b565b620002a686836200025b565b95508019841693508086168417925050509392505050565b6000819050919050565b6000819050919050565b6000620002f3620002ed620002e784620002be565b620002c8565b620002be565b9050919050565b6000819050919050565b6200030f83620002d2565b620003276200031e82620002fa565b84845462000268565b825550505050565b600090565b6200033e6200032f565b6200034b81848462000304565b505050565b5b8181101562000373576200036760008262000334565b60018101905062000351565b5050565b601f821115620003c2576200038c8162000236565b62000397846200024b565b81016020851015620003a7578190505b620003bf620003b6856200024b565b83018262000350565b50505b505050565b600082821c905092915050565b6000620003e760001984600802620003c7565b1980831691505092915050565b6000620004028383620003d4565b9150826002028217905092915050565b6200041d8262000198565b67ffffffffffffffff811115620004395762000438620001a3565b5b62000445825462000201565b6200045282828562000377565b600060209050601f8311600181146200048a576000841562000475578287015190505b620004818582620003f4565b865550620004f1565b601f1984166200049a8662000236565b60005b82811015620004c4578489015182556001820191506020850194506020810190506200049d565b86831015620004e45784890151620004e0601f891682620003d4565b8355505b6001600288020188555050505b505050505050565b6122df80620005096000396000f3fe6080604052600436106101355760003560e01c806379cc6790116100ab578063a457c2d71161006f578063a457c2d714610407578063a9059cbb14610444578063b1be646914610481578063dd62ed3e146104ac578063dfbe250f146104e9578063f2fde38b1461051257610135565b806379cc679014610334578063862278c41461035d578063886a5cd2146103865780638da5cb5b146103b157806395d89b41146103dc57610135565b806339509351116100fd57806339509351146102355780633f8575e11461027257806340c10f191461028e57806342966c68146102b757806370a08231146102e0578063715018a61461031d57610135565b806306fdde031461013a578063095ea7b31461016557806318160ddd146101a257806323b872dd146101cd578063313ce5671461020a575b600080fd5b34801561014657600080fd5b5061014f61053b565b60405161015c91906115ab565b60405180910390f35b34801561017157600080fd5b5061018c60048036038101906101879190611666565b6105cd565b60405161019991906116c1565b60405180910390f35b3480156101ae57600080fd5b506101b76105f0565b6040516101c491906116eb565b60405180910390f35b3480156101d957600080fd5b506101f460048036038101906101ef9190611706565b6105fa565b60405161020191906116c1565b60405180910390f35b34801561021657600080fd5b5061021f610629565b60405161022c9190611775565b60405180910390f35b34801561024157600080fd5b5061025c60048036038101906102579190611666565b61062e565b60405161026991906116c1565b60405180910390f35b61028c60048036038101906102879190611790565b610665565b005b34801561029a57600080fd5b506102b560048036038101906102b09190611666565b6107e3565b005b3480156102c357600080fd5b506102de60048036038101906102d99190611790565b6107f9565b005b3480156102ec57600080fd5b50610307600480360381019061030291906117bd565b61080d565b60405161031491906116eb565b60405180910390f35b34801561032957600080fd5b50610332610855565b005b34801561034057600080fd5b5061035b60048036038101906103569190611666565b610869565b005b34801561036957600080fd5b50610384600480360381019061037f9190611666565b610889565b005b34801561039257600080fd5b5061039b6108ef565b6040516103a891906116eb565b60405180910390f35b3480156103bd57600080fd5b506103c66108ff565b6040516103d391906117f9565b60405180910390f35b3480156103e857600080fd5b506103f1610929565b6040516103fe91906115ab565b60405180910390f35b34801561041357600080fd5b5061042e60048036038101906104299190611666565b6109bb565b60405161043b91906116c1565b60405180910390f35b34801561045057600080fd5b5061046b60048036038101906104669190611666565b610a32565b60405161047891906116c1565b60405180910390f35b34801561048d57600080fd5b50610496610a55565b6040516104a391906115ab565b60405180910390f35b3480156104b857600080fd5b506104d360048036038101906104ce9190611814565b610a75565b6040516104e091906116eb565b60405180910390f35b3480156104f557600080fd5b50610510600480360381019061050b9190611790565b610afc565b005b34801561051e57600080fd5b50610539600480360381019061053491906117bd565b610b54565b005b60606003805461054a90611883565b80601f016020809104026020016040519081016040528092919081815260200182805461057690611883565b80156105c35780601f10610598576101008083540402835291602001916105c3565b820191906000526020600020905b8154815290600101906020018083116105a657829003601f168201915b5050505050905090565b6000806105d8610bd7565b90506105e5818585610bdf565b600191505092915050565b6000600254905090565b600080610605610bd7565b9050610612858285610da8565b61061d858585610e34565b60019150509392505050565b600090565b600080610639610bd7565b905061065a81858561064b8589610a75565b61065591906118e3565b610bdf565b600191505092915050565b600081118015610676575060028111155b6106b5576040517f08c379a00000000000000000000000000000000000000000000000000000000081526004016106ac90611963565b60405180910390fd5b6001810361076a5760006101f442336040516020016106d59291906119ec565b6040516020818303038152906040528051906020012060001c6106f89190611a47565b905060c86107053361080d565b1015610746576040517f08c379a000000000000000000000000000000000000000000000000000000000815260040161073d90611aea565b60405180910390fd5b61075033826105cd565b506107633361075d6108ff565b836105fa565b50506107e0565b600281036107df57606461077d3361080d565b10156107be576040517f08c379a00000000000000000000000000000000000000000000000000000000081526004016107b590611aea565b60405180910390fd5b6107c93360c86105cd565b506107dd336107d66108ff565b60c86105fa565b505b5b50565b6107eb6110aa565b6107f58282611128565b5050565b61080a610804610bd7565b8261127e565b50565b60008060008373ffffffffffffffffffffffffffffffffffffffff1673ffffffffffffffffffffffffffffffffffffffff168152602001908152602001600020549050919050565b61085d6110aa565b610867600061144b565b565b61087b82610875610bd7565b83610da8565b610885828261127e565b5050565b806108933361080d565b10156108d4576040517f08c379a00000000000000000000000000000000000000000000000000000000081526004016108cb90611b56565b60405180910390fd5b6108de33826105cd565b506108ea3383836105fa565b505050565b60006108fa3361080d565b905090565b6000600560009054906101000a900473ffffffffffffffffffffffffffffffffffffffff16905090565b60606004805461093890611883565b80601f016020809104026020016040519081016040528092919081815260200182805461096490611883565b80156109b15780601f10610986576101008083540402835291602001916109b1565b820191906000526020600020905b81548152906001019060200180831161099457829003601f168201915b5050505050905090565b6000806109c6610bd7565b905060006109d48286610a75565b905083811015610a19576040517f08c379a0000000000000000000000000000000000000000000000000000000008152600401610a1090611be8565b60405180910390fd5b610a268286868403610bdf565b60019250505092915050565b600080610a3d610bd7565b9050610a4a818585610e34565b600191505092915050565b60606040518060600160405280603b815260200161226f603b9139905090565b6000600160008473ffffffffffffffffffffffffffffffffffffffff1673ffffffffffffffffffffffffffffffffffffffff16815260200190815260200160002060008373ffffffffffffffffffffffffffffffffffffffff1673ffffffffffffffffffffffffffffffffffffffff16815260200190815260200160002054905092915050565b80610b063361080d565b1015610b47576040517f08c379a0000000000000000000000000000000000000000000000000000000008152600401610b3e90611c7a565b60405180910390fd5b610b51338261127e565b50565b610b5c6110aa565b600073ffffffffffffffffffffffffffffffffffffffff168173ffffffffffffffffffffffffffffffffffffffff1603610bcb576040517f08c379a0000000000000000000000000000000000000000000000000000000008152600401610bc290611d0c565b60405180910390fd5b610bd48161144b565b50565b600033905090565b600073ffffffffffffffffffffffffffffffffffffffff168373ffffffffffffffffffffffffffffffffffffffff1603610c4e576040517f08c379a0000000000000000000000000000000000000000000000000000000008152600401610c4590611d9e565b60405180910390fd5b600073ffffffffffffffffffffffffffffffffffffffff168273ffffffffffffffffffffffffffffffffffffffff1603610cbd576040517f08c379a0000000000000000000000000000000000000000000000000000000008152600401610cb490611e30565b60405180910390fd5b80600160008573ffffffffffffffffffffffffffffffffffffffff1673ffffffffffffffffffffffffffffffffffffffff16815260200190815260200160002060008473ffffffffffffffffffffffffffffffffffffffff1673ffffffffffffffffffffffffffffffffffffffff168152602001908152602001600020819055508173ffffffffffffffffffffffffffffffffffffffff168373ffffffffffffffffffffffffffffffffffffffff167f8c5be1e5ebec7d5bd14f71427d1e84f3dd0314c0f7b2291e5b200ac8c7c3b92583604051610d9b91906116eb565b60405180910390a3505050565b6000610db48484610a75565b90507fffffffffffffffffffffffffffffffffffffffffffffffffffffffffffffffff8114610e2e5781811015610e20576040517f08c379a0000000000000000000000000000000000000000000000000000000008152600401610e1790611e9c565b60405180910390fd5b610e2d8484848403610bdf565b5b50505050565b600073ffffffffffffffffffffffffffffffffffffffff168373ffffffffffffffffffffffffffffffffffffffff1603610ea3576040517f08c379a0000000000000000000000000000000000000000000000000000000008152600401610e9a90611f2e565b60405180910390fd5b600073ffffffffffffffffffffffffffffffffffffffff168273ffffffffffffffffffffffffffffffffffffffff1603610f12576040517f08c379a0000000000000000000000000000000000000000000000000000000008152600401610f0990611fc0565b60405180910390fd5b610f1d838383611511565b60008060008573ffffffffffffffffffffffffffffffffffffffff1673ffffffffffffffffffffffffffffffffffffffff16815260200190815260200160002054905081811015610fa3576040517f08c379a0000000000000000000000000000000000000000000000000000000008152600401610f9a90612052565b60405180910390fd5b8181036000808673ffffffffffffffffffffffffffffffffffffffff1673ffffffffffffffffffffffffffffffffffffffff16815260200190815260200160002081905550816000808573ffffffffffffffffffffffffffffffffffffffff1673ffffffffffffffffffffffffffffffffffffffff168152602001908152602001600020600082825401925050819055508273ffffffffffffffffffffffffffffffffffffffff168473ffffffffffffffffffffffffffffffffffffffff167fddf252ad1be2c89b69c2b068fc378daa952ba7f163c4a11628f55a4df523b3ef8460405161109191906116eb565b60405180910390a36110a4848484611516565b50505050565b6110b2610bd7565b73ffffffffffffffffffffffffffffffffffffffff166110d06108ff565b73ffffffffffffffffffffffffffffffffffffffff1614611126576040517f08c379a000000000000000000000000000000000000000000000000000000000815260040161111d906120be565b60405180910390fd5b565b600073ffffffffffffffffffffffffffffffffffffffff168273ffffffffffffffffffffffffffffffffffffffff1603611197576040517f08c379a000000000000000000000000000000000000000000000000000000000815260040161118e9061212a565b60405180910390fd5b6111a360008383611511565b80600260008282546111b591906118e3565b92505081905550806000808473ffffffffffffffffffffffffffffffffffffffff1673ffffffffffffffffffffffffffffffffffffffff168152602001908152602001600020600082825401925050819055508173ffffffffffffffffffffffffffffffffffffffff16600073ffffffffffffffffffffffffffffffffffffffff167fddf252ad1be2c89b69c2b068fc378daa952ba7f163c4a11628f55a4df523b3ef8360405161126691906116eb565b60405180910390a361127a60008383611516565b5050565b600073ffffffffffffffffffffffffffffffffffffffff168273ffffffffffffffffffffffffffffffffffffffff16036112ed576040517f08c379a00000000000000000000000000000000000000000000000000000000081526004016112e4906121bc565b60405180910390fd5b6112f982600083611511565b60008060008473ffffffffffffffffffffffffffffffffffffffff1673ffffffffffffffffffffffffffffffffffffffff1681526020019081526020016000205490508181101561137f576040517f08c379a00000000000000000000000000000000000000000000000000000000081526004016113769061224e565b60405180910390fd5b8181036000808573ffffffffffffffffffffffffffffffffffffffff1673ffffffffffffffffffffffffffffffffffffffff1681526020019081526020016000208190555081600260008282540392505081905550600073ffffffffffffffffffffffffffffffffffffffff168373ffffffffffffffffffffffffffffffffffffffff167fddf252ad1be2c89b69c2b068fc378daa952ba7f163c4a11628f55a4df523b3ef8460405161143291906116eb565b60405180910390a361144683600084611516565b505050565b6000600560009054906101000a900473ffffffffffffffffffffffffffffffffffffffff16905081600560006101000a81548173ffffffffffffffffffffffffffffffffffffffff021916908373ffffffffffffffffffffffffffffffffffffffff1602179055508173ffffffffffffffffffffffffffffffffffffffff168173ffffffffffffffffffffffffffffffffffffffff167f8be0079c531659141344cd1fd0a4f28419497f9722a3daafe3b4186f6b6457e060405160405180910390a35050565b505050565b505050565b600081519050919050565b600082825260208201905092915050565b60005b8381101561155557808201518184015260208101905061153a565b60008484015250505050565b6000601f19601f8301169050919050565b600061157d8261151b565b6115878185611526565b9350611597818560208601611537565b6115a081611561565b840191505092915050565b600060208201905081810360008301526115c58184611572565b905092915050565b600080fd5b600073ffffffffffffffffffffffffffffffffffffffff82169050919050565b60006115fd826115d2565b9050919050565b61160d816115f2565b811461161857600080fd5b50565b60008135905061162a81611604565b92915050565b6000819050919050565b61164381611630565b811461164e57600080fd5b50565b6000813590506116608161163a565b92915050565b6000806040838503121561167d5761167c6115cd565b5b600061168b8582860161161b565b925050602061169c85828601611651565b9150509250929050565b60008115159050919050565b6116bb816116a6565b82525050565b60006020820190506116d660008301846116b2565b92915050565b6116e581611630565b82525050565b600060208201905061170060008301846116dc565b92915050565b60008060006060848603121561171f5761171e6115cd565b5b600061172d8682870161161b565b935050602061173e8682870161161b565b925050604061174f86828701611651565b9150509250925092565b600060ff82169050919050565b61176f81611759565b82525050565b600060208201905061178a6000830184611766565b92915050565b6000602082840312156117a6576117a56115cd565b5b60006117b484828501611651565b91505092915050565b6000602082840312156117d3576117d26115cd565b5b60006117e18482850161161b565b91505092915050565b6117f3816115f2565b82525050565b600060208201905061180e60008301846117ea565b92915050565b6000806040838503121561182b5761182a6115cd565b5b60006118398582860161161b565b925050602061184a8582860161161b565b9150509250929050565b7f4e487b7100000000000000000000000000000000000000000000000000000000600052602260045260246000fd5b6000600282049050600182168061189b57607f821691505b6020821081036118ae576118ad611854565b5b50919050565b7f4e487b7100000000000000000000000000000000000000000000000000000000600052601160045260246000fd5b60006118ee82611630565b91506118f983611630565b9250828201905080821115611911576119106118b4565b5b92915050565b7f496e76616c69642073656c656374696f6e000000000000000000000000000000600082015250565b600061194d601183611526565b915061195882611917565b602082019050919050565b6000602082019050818103600083015261197c81611940565b9050919050565b6000819050919050565b61199e61199982611630565b611983565b82525050565b60008160601b9050919050565b60006119bc826119a4565b9050919050565b60006119ce826119b1565b9050919050565b6119e66119e1826115f2565b6119c3565b82525050565b60006119f8828561198d565b602082019150611a0882846119d5565b6014820191508190509392505050565b7f4e487b7100000000000000000000000000000000000000000000000000000000600052601260045260246000fd5b6000611a5282611630565b9150611a5d83611630565b925082611a6d57611a6c611a18565b5b828206905092915050565b7f5468657265206973206e6f742073756666696369656e742042616c616e63652060008201527f746f20666f72207468697320726564656d7074696f6e00000000000000000000602082015250565b6000611ad4603683611526565b9150611adf82611a78565b604082019050919050565b60006020820190508181036000830152611b0381611ac7565b9050919050565b7f796f7520617265206e6f74206f776e6572000000000000000000000000000000600082015250565b6000611b40601183611526565b9150611b4b82611b0a565b602082019050919050565b60006020820190508181036000830152611b6f81611b33565b9050919050565b7f45524332303a2064656372656173656420616c6c6f77616e63652062656c6f7760008201527f207a65726f000000000000000000000000000000000000000000000000000000602082015250565b6000611bd2602583611526565b9150611bdd82611b76565b604082019050919050565b60006020820190508181036000830152611c0181611bc5565b9050919050565b7f596f752063616e2774206275726e206d6f7265207468616e207468652064656760008201527f656e20796f75206f776e00000000000000000000000000000000000000000000602082015250565b6000611c64602a83611526565b9150611c6f82611c08565b604082019050919050565b60006020820190508181036000830152611c9381611c57565b9050919050565b7f4f776e61626c653a206e6577206f776e657220697320746865207a65726f206160008201527f6464726573730000000000000000000000000000000000000000000000000000602082015250565b6000611cf6602683611526565b9150611d0182611c9a565b604082019050919050565b60006020820190508181036000830152611d2581611ce9565b9050919050565b7f45524332303a20617070726f76652066726f6d20746865207a65726f2061646460008201527f7265737300000000000000000000000000000000000000000000000000000000602082015250565b6000611d88602483611526565b9150611d9382611d2c565b604082019050919050565b60006020820190508181036000830152611db781611d7b565b9050919050565b7f45524332303a20617070726f766520746f20746865207a65726f20616464726560008201527f7373000000000000000000000000000000000000000000000000000000000000602082015250565b6000611e1a602283611526565b9150611e2582611dbe565b604082019050919050565b60006020820190508181036000830152611e4981611e0d565b9050919050565b7f45524332303a20696e73756666696369656e7420616c6c6f77616e6365000000600082015250565b6000611e86601d83611526565b9150611e9182611e50565b602082019050919050565b60006020820190508181036000830152611eb581611e79565b9050919050565b7f45524332303a207472616e736665722066726f6d20746865207a65726f20616460008201527f6472657373000000000000000000000000000000000000000000000000000000602082015250565b6000611f18602583611526565b9150611f2382611ebc565b604082019050919050565b60006020820190508181036000830152611f4781611f0b565b9050919050565b7f45524332303a207472616e7366657220746f20746865207a65726f206164647260008201527f6573730000000000000000000000000000000000000000000000000000000000602082015250565b6000611faa602383611526565b9150611fb582611f4e565b604082019050919050565b60006020820190508181036000830152611fd981611f9d565b9050919050565b7f45524332303a207472616e7366657220616d6f756e742065786365656473206260008201527f616c616e63650000000000000000000000000000000000000000000000000000602082015250565b600061203c602683611526565b915061204782611fe0565b604082019050919050565b6000602082019050818103600083015261206b8161202f565b9050919050565b7f4f776e61626c653a2063616c6c6572206973206e6f7420746865206f776e6572600082015250565b60006120a8602083611526565b91506120b382612072565b602082019050919050565b600060208201905081810360008301526120d78161209b565b9050919050565b7f45524332303a206d696e7420746f20746865207a65726f206164647265737300600082015250565b6000612114601f83611526565b915061211f826120de565b602082019050919050565b6000602082019050818103600083015261214381612107565b9050919050565b7f45524332303a206275726e2066726f6d20746865207a65726f2061646472657360008201527f7300000000000000000000000000000000000000000000000000000000000000602082015250565b60006121a6602183611526565b91506121b18261214a565b604082019050919050565b600060208201905081810360008301526121d581612199565b9050919050565b7f45524332303a206275726e20616d6f756e7420657863656564732062616c616e60008201527f6365000000000000000000000000000000000000000000000000000000000000602082015250565b6000612238602283611526565b9150612243826121dc565b604082019050919050565b600060208201905081810360008301526122678161222b565b905091905056fe312e20776865656c207370696e205b2030202d3e2031303030205d203d20323030200a20322e2067657420327820746f6b656e203d203130302020a2646970667358221220ad576623891e375dc4254e2f489c572e8c874f0d977ac64325ebc3b67f22be1e64736f6c63430008120033",
  "linkReferences": {},
  "deployedLinkReferences": {}
}